{
  "contractName": "LoanStateMachine",
  "abi": [
    {
      "inputs": [
        {
          "internalType": "uint256",
          "name": "_amount",
          "type": "uint256"
        },
        {
          "internalType": "uint256",
          "name": "_interest",
          "type": "uint256"
        },
        {
          "internalType": "uint256",
          "name": "_duration",
          "type": "uint256"
        },
        {
          "internalType": "address payable",
          "name": "_borrower",
          "type": "address"
        },
        {
          "internalType": "address payable",
          "name": "_lender",
          "type": "address"
        }
      ],
      "payable": false,
      "stateMutability": "nonpayable",
      "type": "constructor"
    },
    {
      "constant": true,
      "inputs": [],
      "name": "amount",
      "outputs": [
        {
          "internalType": "uint256",
          "name": "",
          "type": "uint256"
        }
      ],
      "payable": false,
      "stateMutability": "view",
      "type": "function"
    },
    {
      "constant": true,
      "inputs": [],
      "name": "borrower",
      "outputs": [
        {
          "internalType": "address payable",
          "name": "",
          "type": "address"
        }
      ],
      "payable": false,
      "stateMutability": "view",
      "type": "function"
    },
    {
      "constant": true,
      "inputs": [],
      "name": "duration",
      "outputs": [
        {
          "internalType": "uint256",
          "name": "",
          "type": "uint256"
        }
      ],
      "payable": false,
      "stateMutability": "view",
      "type": "function"
    },
    {
      "constant": true,
      "inputs": [],
      "name": "end",
      "outputs": [
        {
          "internalType": "uint256",
          "name": "",
          "type": "uint256"
        }
      ],
      "payable": false,
      "stateMutability": "view",
      "type": "function"
    },
    {
      "constant": true,
      "inputs": [],
      "name": "interest",
      "outputs": [
        {
          "internalType": "uint256",
          "name": "",
          "type": "uint256"
        }
      ],
      "payable": false,
      "stateMutability": "view",
      "type": "function"
    },
    {
      "constant": true,
      "inputs": [],
      "name": "lender",
      "outputs": [
        {
          "internalType": "address payable",
          "name": "",
          "type": "address"
        }
      ],
      "payable": false,
      "stateMutability": "view",
      "type": "function"
    },
    {
      "constant": true,
      "inputs": [],
      "name": "state",
      "outputs": [
        {
          "internalType": "enum LoanStateMachine.State",
          "name": "",
          "type": "uint8"
        }
      ],
      "payable": false,
      "stateMutability": "view",
      "type": "function"
    },
    {
      "constant": false,
      "inputs": [],
      "name": "fund",
      "outputs": [],
      "payable": true,
      "stateMutability": "payable",
      "type": "function"
    },
    {
      "constant": false,
      "inputs": [],
      "name": "reimburse",
      "outputs": [],
      "payable": true,
      "stateMutability": "payable",
      "type": "function"
    }
  ],
  "bytecode": "0x608060405260008060006101000a81548160ff0219169083600281111561002257fe5b021790555034801561003357600080fd5b50604051610b28380380610b28833981810160405260a081101561005657600080fd5b81019080805190602001909291908051906020019092919080519060200190929190805190602001909291908051906020019092919050505084600181905550836002819055508260048190555081600560006101000a81548173ffffffffffffffffffffffffffffffffffffffff021916908373ffffffffffffffffffffffffffffffffffffffff16021790555080600660006101000a81548173ffffffffffffffffffffffffffffffffffffffff021916908373ffffffffffffffffffffffffffffffffffffffff16021790555050505050506109ee8061013a6000396000f3fe6080604052600436106100865760003560e01c8063bcead63e11610059578063bcead63e14610142578063c19d93fb14610199578063c392f766146101d2578063d3927c15146101fd578063efbe1c1c1461020757610086565b80630fb5a6b41461008b5780637df1f1b9146100b6578063aa8c217c1461010d578063b60d428814610138575b600080fd5b34801561009757600080fd5b506100a0610232565b6040518082815260200191505060405180910390f35b3480156100c257600080fd5b506100cb610238565b604051808273ffffffffffffffffffffffffffffffffffffffff1673ffffffffffffffffffffffffffffffffffffffff16815260200191505060405180910390f35b34801561011957600080fd5b5061012261025e565b6040518082815260200191505060405180910390f35b610140610264565b005b34801561014e57600080fd5b506101576103f8565b604051808273ffffffffffffffffffffffffffffffffffffffff1673ffffffffffffffffffffffffffffffffffffffff16815260200191505060405180910390f35b3480156101a557600080fd5b506101ae61041e565b604051808260028111156101be57fe5b60ff16815260200191505060405180910390f35b3480156101de57600080fd5b506101e7610430565b6040518082815260200191505060405180910390f35b610205610436565b005b34801561021357600080fd5b5061021c6105d2565b6040518082815260200191505060405180910390f35b60045481565b600560009054906101000a900473ffffffffffffffffffffffffffffffffffffffff1681565b60015481565b600660009054906101000a900473ffffffffffffffffffffffffffffffffffffffff1673ffffffffffffffffffffffffffffffffffffffff163373ffffffffffffffffffffffffffffffffffffffff1614610327576040517f08c379a00000000000000000000000000000000000000000000000000000000081526004018080602001828103825260148152602001807f4f6e6c79206c656e6465722063616e206c656e6400000000000000000000000081525060200191505060405180910390fd5b6001544714610381576040517f08c379a00000000000000000000000000000000000000000000000000000000081526004018080602001828103825260218152602001806109186021913960400191505060405180910390fd5b61038b60016105d8565b600560009054906101000a900473ffffffffffffffffffffffffffffffffffffffff1673ffffffffffffffffffffffffffffffffffffffff166108fc6001549081150290604051600060405180830381858888f193505050501580156103f5573d6000803e3d6000fd5b50565b600660009054906101000a900473ffffffffffffffffffffffffffffffffffffffff1681565b6000809054906101000a900460ff1681565b60025481565b600560009054906101000a900473ffffffffffffffffffffffffffffffffffffffff1673ffffffffffffffffffffffffffffffffffffffff163373ffffffffffffffffffffffffffffffffffffffff16146104f9576040517f08c379a000000000000000000000000000000000000000000000000000000000815260040180806020018281038252601b8152602001807f4f6e6c7920626f72726f7765722063616e207265696d6275727365000000000081525060200191505060405180910390fd5b600254600154013414610557576040517f08c379a000000000000000000000000000000000000000000000000000000000815260040180806020018281038252603081526020018061095b6030913960400191505060405180910390fd5b61056160026105d8565b600660009054906101000a900473ffffffffffffffffffffffffffffffffffffffff1673ffffffffffffffffffffffffffffffffffffffff166108fc600254600154019081150290604051600060405180830381858888f193505050501580156105cf573d6000803e3d6000fd5b50565b60035481565b600060028111156105e557fe5b8160028111156105f157fe5b1415610665576040517f08c379a000000000000000000000000000000000000000000000000000000000815260040180806020018281038252601f8152602001807f43616e6e6f7420676f206261636b20746f2050454e44494e472073746174650081525060200191505060405180910390fd5b6000809054906101000a900460ff16600281111561067f57fe5b81600281111561068b57fe5b14156106e2576040517f08c379a00000000000000000000000000000000000000000000000000000000081526004018080602001828103825260228152602001806109396022913960400191505060405180910390fd5b600160028111156106ef57fe5b8160028111156106fb57fe5b14156107ad576000600281111561070e57fe5b6000809054906101000a900460ff16600281111561072857fe5b1461077e576040517f08c379a00000000000000000000000000000000000000000000000000000000081526004018080602001828103825260308152602001806108e86030913960400191505060405180910390fd5b60016000806101000a81548160ff0219169083600281111561079c57fe5b021790555060045442016003819055505b6002808111156107b957fe5b8160028111156107c557fe5b14156108e457600160028111156107d857fe5b6000809054906101000a900460ff1660028111156107f257fe5b14610848576040517f08c379a000000000000000000000000000000000000000000000000000000000815260040180806020018281038252602f81526020018061098b602f913960400191505060405180910390fd5b6003544210156108c0576040517f08c379a00000000000000000000000000000000000000000000000000000000081526004018080602001828103825260188152602001807f4c6f616e20686173206e6f74206d61747572656420796574000000000000000081525060200191505060405180910390fd5b60026000806101000a81548160ff021916908360028111156108de57fe5b02179055505b5056fe43616e206f6e6c79207472616e736974696f6e20746f204143544956452066726f6d2050454e44494e4720737461746543616e206f6e6c79206c656e642074686520726571756972656420616d6f756e7443616e6e6f74207472616e736974696f6e20746f2063757272656e74207374617465426f72726f776572206d757374207265696d627572736520657861637420616d6f756e7420772f20696e74657265737443616e206f6e6c79207472616e736974696f6e20746f20434c4f5345442066726f6d20414354495645207374617465a265627a7a72315820edeab1ce20f40924c8ed81c64173f5e10cbccb258bd9ab0f68759ed330ed7b5564736f6c63430005100032",
  "source": "pragma solidity ^0.5.4;\n\ncontract LoanStateMachine {\n    enum State {PENDING, ACTIVE, CLOSED}\n\n    State public state = State.PENDING;\n    uint256 public amount;\n    uint256 public interest;\n    uint256 public end;\n    uint256 public duration;\n    address payable public borrower;\n    address payable public lender;\n\n    constructor(\n        uint256 _amount,\n        uint256 _interest,\n        uint256 _duration,\n        address payable _borrower,\n        address payable _lender\n    ) public {\n        amount = _amount;\n        interest = _interest;\n        duration = _duration;\n        borrower = _borrower;\n        lender = _lender;\n    }\n\n    function fund() external payable {\n        require(msg.sender == lender, \"Only lender can lend\");\n        require(\n            address(this).balance == amount,\n            \"Can only lend the required amount\"\n        );\n        _transitionTo(State.ACTIVE);\n        borrower.transfer(amount);\n    }\n\n    function reimburse() external payable {\n        require(msg.sender == borrower, \"Only borrower can reimburse\");\n        require(\n            msg.value == amount + interest,\n            \"Borrower must reimburse exact amount w/ interest\"\n        );\n        _transitionTo(State.CLOSED);\n        lender.transfer(amount + interest);\n    }\n\n    function _transitionTo(State to) internal {\n        require(to != State.PENDING, \"Cannot go back to PENDING state\");\n        require(to != state, \"Cannot transition to current state\");\n        if (to == State.ACTIVE) {\n            require(\n                state == State.PENDING,\n                \"Can only transition to ACTIVE from PENDING state\"\n            );\n            state = State.ACTIVE;\n            end = now + duration;\n        }\n        if (to == State.CLOSED) {\n            require(\n                state == State.ACTIVE,\n                \"Can only transition to CLOSED from ACTIVE state\"\n            );\n            require(now >= end, \"Loan has not matured yet\");\n            state = State.CLOSED;\n        }\n    }\n}\n",
  "sourcePath": "/Users/heyyehudes/Documents/Dapp_30/loanstatemachine/contracts/LoanStateMachine.sol",
  "compiler": {
    "name": "solc",
    "version": "0.5.16+commit.9c3226ce.Emscripten.clang"
  },
  "schemaVersion": "3.3.1",
  "updatedAt": "2021-02-18T04:03:07.178Z",
  "networkType": "ethereum",
  "devdoc": {
    "methods": {}
  },
  "userdoc": {
    "methods": {}
  }
}